{
  "_format": "hh-sol-artifact-1",
  "contractName": "ArtDIDRegistry",
  "sourceName": "contracts/ArtDIDRegistry.sol",
  "abi": [
    {
      "anonymous": false,
      "inputs": [
        {
          "indexed": true,
          "internalType": "bytes32",
          "name": "did",
          "type": "bytes32"
        },
        {
          "indexed": false,
          "internalType": "string",
          "name": "cid",
          "type": "string"
        },
        {
          "indexed": true,
          "internalType": "address",
          "name": "identity",
          "type": "address"
        },
        {
          "indexed": false,
          "internalType": "uint256",
          "name": "created_at",
          "type": "uint256"
        },
        {
          "indexed": false,
          "internalType": "uint256",
          "name": "updated_at",
          "type": "uint256"
        }
      ],
      "name": "RecordSet",
      "type": "event"
    },
    {
      "anonymous": false,
      "inputs": [
        {
          "indexed": true,
          "internalType": "bytes32",
          "name": "did",
          "type": "bytes32"
        },
        {
          "indexed": false,
          "internalType": "string",
          "name": "newCid",
          "type": "string"
        },
        {
          "indexed": true,
          "internalType": "address",
          "name": "updater",
          "type": "address"
        },
        {
          "indexed": false,
          "internalType": "uint256",
          "name": "updated_at",
          "type": "uint256"
        }
      ],
      "name": "RecordUpdated",
      "type": "event"
    },
    {
      "inputs": [
        {
          "internalType": "bytes32",
          "name": "",
          "type": "bytes32"
        }
      ],
      "name": "didRecords",
      "outputs": [
        {
          "internalType": "string",
          "name": "cid",
          "type": "string"
        },
        {
          "internalType": "uint256",
          "name": "created_at",
          "type": "uint256"
        },
        {
          "internalType": "uint256",
          "name": "updated_at",
          "type": "uint256"
        },
        {
          "internalType": "address",
          "name": "creator",
          "type": "address"
        }
      ],
      "stateMutability": "view",
      "type": "function"
    },
    {
      "inputs": [
        {
          "internalType": "string",
          "name": "cid",
          "type": "string"
        }
      ],
      "name": "generateDID",
      "outputs": [
        {
          "internalType": "bytes32",
          "name": "",
          "type": "bytes32"
        }
      ],
      "stateMutability": "pure",
      "type": "function"
    },
    {
      "inputs": [
        {
          "internalType": "bytes32",
          "name": "did",
          "type": "bytes32"
        }
      ],
      "name": "getFullRecord",
      "outputs": [
        {
          "components": [
            {
              "internalType": "string",
              "name": "cid",
              "type": "string"
            },
            {
              "internalType": "uint256",
              "name": "created_at",
              "type": "uint256"
            },
            {
              "internalType": "uint256",
              "name": "updated_at",
              "type": "uint256"
            },
            {
              "internalType": "address",
              "name": "creator",
              "type": "address"
            }
          ],
          "internalType": "struct ArtDIDRegistry.ArtworkRecord",
          "name": "",
          "type": "tuple"
        }
      ],
      "stateMutability": "view",
      "type": "function"
    },
    {
      "inputs": [
        {
          "internalType": "bytes32",
          "name": "did",
          "type": "bytes32"
        }
      ],
      "name": "getRecord",
      "outputs": [
        {
          "internalType": "string",
          "name": "cid",
          "type": "string"
        },
        {
          "internalType": "uint256",
          "name": "created_at",
          "type": "uint256"
        },
        {
          "internalType": "uint256",
          "name": "updated_at",
          "type": "uint256"
        },
        {
          "internalType": "address",
          "name": "creator",
          "type": "address"
        }
      ],
      "stateMutability": "view",
      "type": "function"
    },
    {
      "inputs": [
        {
          "internalType": "bytes32",
          "name": "did",
          "type": "bytes32"
        }
      ],
      "name": "hasRecord",
      "outputs": [
        {
          "internalType": "bool",
          "name": "",
          "type": "bool"
        }
      ],
      "stateMutability": "view",
      "type": "function"
    },
    {
      "inputs": [
        {
          "internalType": "string",
          "name": "cid",
          "type": "string"
        }
      ],
      "name": "setRecord",
      "outputs": [
        {
          "internalType": "bytes32",
          "name": "",
          "type": "bytes32"
        }
      ],
      "stateMutability": "nonpayable",
      "type": "function"
    },
    {
      "inputs": [
        {
          "internalType": "string",
          "name": "oldCid",
          "type": "string"
        },
        {
          "internalType": "string",
          "name": "newCid",
          "type": "string"
        }
      ],
      "name": "updateRecord",
      "outputs": [],
      "stateMutability": "nonpayable",
      "type": "function"
    }
  ],
  "bytecode": "0x608060405234801561001057600080fd5b50611391806100206000396000f3fe608060405234801561001057600080fd5b506004361061007d5760003560e01c80633e0a00991161005b5780633e0a00991461011557806367822aae14610145578063b377e39914610161578063fb31ff37146101945761007d565b80630aa1c191146100825780630b95824b146100b2578063213681cd146100e2575b600080fd5b61009c60048036038101906100979190610a76565b6101c4565b6040516100a99190610ad8565b60405180910390f35b6100cc60048036038101906100c79190610b1f565b6101f4565b6040516100d99190610b67565b60405180910390f35b6100fc60048036038101906100f79190610b1f565b610221565b60405161010c9493929190610c5b565b60405180910390f35b61012f600480360381019061012a9190610a76565b610368565b60405161013c9190610ad8565b60405180910390f35b61015f600480360381019061015a9190610ca7565b610537565b005b61017b60048036038101906101769190610b1f565b6106de565b60405161018b9493929190610c5b565b60405180910390f35b6101ae60048036038101906101a99190610b1f565b6107b6565b6040516101bb9190610dea565b60405180910390f35b6000816040516020016101d79190610e48565b604051602081830303815290604052805190602001209050919050565b600080600080848152602001908152602001600020600001805461021790610e8e565b9050119050919050565b606060008060008060008087815260200190815260200160002060405180608001604052908160008201805461025690610e8e565b80601f016020809104026020016040519081016040528092919081815260200182805461028290610e8e565b80156102cf5780601f106102a4576101008083540402835291602001916102cf565b820191906000526020600020905b8154815290600101906020018083116102b257829003601f168201915b5050505050815260200160018201548152602001600282015481526020016003820160009054906101000a900473ffffffffffffffffffffffffffffffffffffffff1673ffffffffffffffffffffffffffffffffffffffff1673ffffffffffffffffffffffffffffffffffffffff1681525050905080600001518160200151826040015183606001519450945094509450509193509193565b6000808251116103ad576040517f08c379a00000000000000000000000000000000000000000000000000000000081526004016103a490610f0b565b60405180910390fd5b60006103b8836101c4565b9050600080600083815260200190815260200160002060000180546103dc90610e8e565b90501461041e576040517f08c379a000000000000000000000000000000000000000000000000000000000815260040161041590610f77565b60405180910390fd5b60405180608001604052808481526020014281526020014281526020013373ffffffffffffffffffffffffffffffffffffffff16815250600080838152602001908152602001600020600082015181600001908161047c9190611143565b50602082015181600101556040820151816002015560608201518160030160006101000a81548173ffffffffffffffffffffffffffffffffffffffff021916908373ffffffffffffffffffffffffffffffffffffffff1602179055509050503373ffffffffffffffffffffffffffffffffffffffff16817ff22ac9c19b713545c845189f7a222f880fa0a8167dd9feba733fdff985e7819685424260405161052693929190611215565b60405180910390a380915050919050565b6000610542836101c4565b90506000806000838152602001908152602001600020600001805461056690610e8e565b9050116105a8576040517f08c379a000000000000000000000000000000000000000000000000000000000815260040161059f9061129f565b60405180910390fd5b3373ffffffffffffffffffffffffffffffffffffffff1660008083815260200190815260200160002060030160009054906101000a900473ffffffffffffffffffffffffffffffffffffffff1673ffffffffffffffffffffffffffffffffffffffff161461064b576040517f08c379a00000000000000000000000000000000000000000000000000000000081526004016106429061130b565b60405180910390fd5b81600080838152602001908152602001600020600001908161066d9190611143565b5042600080838152602001908152602001600020600201819055503373ffffffffffffffffffffffffffffffffffffffff16817faafa35f6d11bd721ee09d7f4efa9eaefb491ff961e7302d1c18a4e6c193de28884426040516106d192919061132b565b60405180910390a3505050565b600060205280600052604060002060009150905080600001805461070190610e8e565b80601f016020809104026020016040519081016040528092919081815260200182805461072d90610e8e565b801561077a5780601f1061074f5761010080835404028352916020019161077a565b820191906000526020600020905b81548152906001019060200180831161075d57829003601f168201915b5050505050908060010154908060020154908060030160009054906101000a900473ffffffffffffffffffffffffffffffffffffffff16905084565b6107be6108de565b6000808381526020019081526020016000206040518060800160405290816000820180546107eb90610e8e565b80601f016020809104026020016040519081016040528092919081815260200182805461081790610e8e565b80156108645780601f1061083957610100808354040283529160200191610864565b820191906000526020600020905b81548152906001019060200180831161084757829003601f168201915b5050505050815260200160018201548152602001600282015481526020016003820160009054906101000a900473ffffffffffffffffffffffffffffffffffffffff1673ffffffffffffffffffffffffffffffffffffffff1673ffffffffffffffffffffffffffffffffffffffff16815250509050919050565b6040518060800160405280606081526020016000815260200160008152602001600073ffffffffffffffffffffffffffffffffffffffff1681525090565b6000604051905090565b600080fd5b600080fd5b600080fd5b600080fd5b6000601f19601f8301169050919050565b7f4e487b7100000000000000000000000000000000000000000000000000000000600052604160045260246000fd5b6109838261093a565b810181811067ffffffffffffffff821117156109a2576109a161094b565b5b80604052505050565b60006109b561091c565b90506109c1828261097a565b919050565b600067ffffffffffffffff8211156109e1576109e061094b565b5b6109ea8261093a565b9050602081019050919050565b82818337600083830152505050565b6000610a19610a14846109c6565b6109ab565b905082815260208101848484011115610a3557610a34610935565b5b610a408482856109f7565b509392505050565b600082601f830112610a5d57610a5c610930565b5b8135610a6d848260208601610a06565b91505092915050565b600060208284031215610a8c57610a8b610926565b5b600082013567ffffffffffffffff811115610aaa57610aa961092b565b5b610ab684828501610a48565b91505092915050565b6000819050919050565b610ad281610abf565b82525050565b6000602082019050610aed6000830184610ac9565b92915050565b610afc81610abf565b8114610b0757600080fd5b50565b600081359050610b1981610af3565b92915050565b600060208284031215610b3557610b34610926565b5b6000610b4384828501610b0a565b91505092915050565b60008115159050919050565b610b6181610b4c565b82525050565b6000602082019050610b7c6000830184610b58565b92915050565b600081519050919050565b600082825260208201905092915050565b60005b83811015610bbc578082015181840152602081019050610ba1565b60008484015250505050565b6000610bd382610b82565b610bdd8185610b8d565b9350610bed818560208601610b9e565b610bf68161093a565b840191505092915050565b6000819050919050565b610c1481610c01565b82525050565b600073ffffffffffffffffffffffffffffffffffffffff82169050919050565b6000610c4582610c1a565b9050919050565b610c5581610c3a565b82525050565b60006080820190508181036000830152610c758187610bc8565b9050610c846020830186610c0b565b610c916040830185610c0b565b610c9e6060830184610c4c565b95945050505050565b60008060408385031215610cbe57610cbd610926565b5b600083013567ffffffffffffffff811115610cdc57610cdb61092b565b5b610ce885828601610a48565b925050602083013567ffffffffffffffff811115610d0957610d0861092b565b5b610d1585828601610a48565b9150509250929050565b600082825260208201905092915050565b6000610d3b82610b82565b610d458185610d1f565b9350610d55818560208601610b9e565b610d5e8161093a565b840191505092915050565b610d7281610c01565b82525050565b610d8181610c3a565b82525050565b60006080830160008301518482036000860152610da48282610d30565b9150506020830151610db96020860182610d69565b506040830151610dcc6040860182610d69565b506060830151610ddf6060860182610d78565b508091505092915050565b60006020820190508181036000830152610e048184610d87565b905092915050565b600081905092915050565b6000610e2282610b82565b610e2c8185610e0c565b9350610e3c818560208601610b9e565b80840191505092915050565b6000610e548284610e17565b915081905092915050565b7f4e487b7100000000000000000000000000000000000000000000000000000000600052602260045260246000fd5b60006002820490506001821680610ea657607f821691505b602082108103610eb957610eb8610e5f565b5b50919050565b7f4349442063616e6e6f7420626520656d70747900000000000000000000000000600082015250565b6000610ef5601383610b8d565b9150610f0082610ebf565b602082019050919050565b60006020820190508181036000830152610f2481610ee8565b9050919050565b7f417274776f726b20616c72656164792072656769737465726564000000000000600082015250565b6000610f61601a83610b8d565b9150610f6c82610f2b565b602082019050919050565b60006020820190508181036000830152610f9081610f54565b9050919050565b60008190508160005260206000209050919050565b60006020601f8301049050919050565b600082821b905092915050565b600060088302610ff97fffffffffffffffffffffffffffffffffffffffffffffffffffffffffffffffff82610fbc565b6110038683610fbc565b95508019841693508086168417925050509392505050565b6000819050919050565b600061104061103b61103684610c01565b61101b565b610c01565b9050919050565b6000819050919050565b61105a83611025565b61106e61106682611047565b848454610fc9565b825550505050565b600090565b611083611076565b61108e818484611051565b505050565b5b818110156110b2576110a760008261107b565b600181019050611094565b5050565b601f8211156110f7576110c881610f97565b6110d184610fac565b810160208510156110e0578190505b6110f46110ec85610fac565b830182611093565b50505b505050565b600082821c905092915050565b600061111a600019846008026110fc565b1980831691505092915050565b60006111338383611109565b9150826002028217905092915050565b61114c82610b82565b67ffffffffffffffff8111156111655761116461094b565b5b61116f8254610e8e565b61117a8282856110b6565b600060209050601f8311600181146111ad576000841561119b578287015190505b6111a58582611127565b86555061120d565b601f1984166111bb86610f97565b60005b828110156111e3578489015182556001820191506020850194506020810190506111be565b8683101561120057848901516111fc601f891682611109565b8355505b6001600288020188555050505b505050505050565b6000606082019050818103600083015261122f8186610bc8565b905061123e6020830185610c0b565b61124b6040830184610c0b565b949350505050565b7f5265636f7264206e6f7420666f756e6400000000000000000000000000000000600082015250565b6000611289601083610b8d565b915061129482611253565b602082019050919050565b600060208201905081810360008301526112b88161127c565b9050919050565b7f4f6e6c792063726561746f722063616e20757064617465000000000000000000600082015250565b60006112f5601783610b8d565b9150611300826112bf565b602082019050919050565b60006020820190508181036000830152611324816112e8565b9050919050565b600060408201905081810360008301526113458185610bc8565b90506113546020830184610c0b565b939250505056fea2646970667358221220e62db6fda27476af3df7d190e6abb34be967ddc8dcd73025b3825d555da40a4664736f6c63430008130033",
  "linkReferences": {},
  "deployedLinkReferences": {}
}