{
  "_format": "hh-sol-artifact-1",
  "contractName": "ArtDIDRegistry",
  "sourceName": "contracts/ArtDIDRegistry.sol",
  "abi": [
    {
      "anonymous": false,
      "inputs": [
        {
          "indexed": true,
          "internalType": "bytes32",
          "name": "did",
          "type": "bytes32"
        },
        {
          "indexed": true,
          "internalType": "address",
          "name": "previousOwner",
          "type": "address"
        },
        {
          "indexed": true,
          "internalType": "address",
          "name": "newOwner",
          "type": "address"
        },
        {
          "indexed": false,
          "internalType": "uint256",
          "name": "timestamp",
          "type": "uint256"
        }
      ],
      "name": "OwnershipTransferred",
      "type": "event"
    },
    {
      "anonymous": false,
      "inputs": [
        {
          "indexed": true,
          "internalType": "bytes32",
          "name": "did",
          "type": "bytes32"
        },
        {
          "indexed": false,
          "internalType": "string",
          "name": "cid",
          "type": "string"
        },
        {
          "indexed": true,
          "internalType": "address",
          "name": "owner",
          "type": "address"
        },
        {
          "indexed": false,
          "internalType": "uint256",
          "name": "created_at",
          "type": "uint256"
        }
      ],
      "name": "RecordSet",
      "type": "event"
    },
    {
      "anonymous": false,
      "inputs": [
        {
          "indexed": true,
          "internalType": "bytes32",
          "name": "did",
          "type": "bytes32"
        },
        {
          "indexed": false,
          "internalType": "string",
          "name": "oldCid",
          "type": "string"
        },
        {
          "indexed": false,
          "internalType": "string",
          "name": "newCid",
          "type": "string"
        },
        {
          "indexed": true,
          "internalType": "address",
          "name": "updater",
          "type": "address"
        },
        {
          "indexed": false,
          "internalType": "uint256",
          "name": "updated_at",
          "type": "uint256"
        }
      ],
      "name": "RecordUpdated",
      "type": "event"
    },
    {
      "inputs": [
        {
          "internalType": "bytes32",
          "name": "",
          "type": "bytes32"
        }
      ],
      "name": "didRecords",
      "outputs": [
        {
          "internalType": "uint256",
          "name": "created_at",
          "type": "uint256"
        },
        {
          "internalType": "uint256",
          "name": "updated_at",
          "type": "uint256"
        }
      ],
      "stateMutability": "view",
      "type": "function"
    },
    {
      "inputs": [
        {
          "internalType": "string",
          "name": "cid",
          "type": "string"
        }
      ],
      "name": "generateDID",
      "outputs": [
        {
          "internalType": "bytes32",
          "name": "",
          "type": "bytes32"
        }
      ],
      "stateMutability": "pure",
      "type": "function"
    },
    {
      "inputs": [
        {
          "internalType": "bytes32",
          "name": "did",
          "type": "bytes32"
        }
      ],
      "name": "getCurrentOwner",
      "outputs": [
        {
          "internalType": "address",
          "name": "",
          "type": "address"
        }
      ],
      "stateMutability": "view",
      "type": "function"
    },
    {
      "inputs": [
        {
          "internalType": "bytes32",
          "name": "did",
          "type": "bytes32"
        }
      ],
      "name": "getFullRecord",
      "outputs": [
        {
          "components": [
            {
              "internalType": "string[]",
              "name": "cid",
              "type": "string[]"
            },
            {
              "internalType": "uint256",
              "name": "created_at",
              "type": "uint256"
            },
            {
              "internalType": "uint256",
              "name": "updated_at",
              "type": "uint256"
            },
            {
              "internalType": "address[]",
              "name": "owner",
              "type": "address[]"
            }
          ],
          "internalType": "struct ArtDIDRegistry.ArtworkRecord",
          "name": "",
          "type": "tuple"
        }
      ],
      "stateMutability": "view",
      "type": "function"
    },
    {
      "inputs": [
        {
          "internalType": "bytes32",
          "name": "did",
          "type": "bytes32"
        }
      ],
      "name": "getLatestRecord",
      "outputs": [
        {
          "internalType": "string",
          "name": "latestCid",
          "type": "string"
        },
        {
          "internalType": "uint256",
          "name": "created_at",
          "type": "uint256"
        },
        {
          "internalType": "uint256",
          "name": "updated_at",
          "type": "uint256"
        },
        {
          "internalType": "address[]",
          "name": "owners",
          "type": "address[]"
        }
      ],
      "stateMutability": "view",
      "type": "function"
    },
    {
      "inputs": [
        {
          "internalType": "bytes32",
          "name": "did",
          "type": "bytes32"
        }
      ],
      "name": "hasRecord",
      "outputs": [
        {
          "internalType": "bool",
          "name": "",
          "type": "bool"
        }
      ],
      "stateMutability": "view",
      "type": "function"
    },
    {
      "inputs": [
        {
          "internalType": "bytes32",
          "name": "did",
          "type": "bytes32"
        },
        {
          "internalType": "address",
          "name": "addr",
          "type": "address"
        }
      ],
      "name": "isOwner",
      "outputs": [
        {
          "internalType": "bool",
          "name": "",
          "type": "bool"
        }
      ],
      "stateMutability": "view",
      "type": "function"
    },
    {
      "inputs": [
        {
          "internalType": "string",
          "name": "cid",
          "type": "string"
        }
      ],
      "name": "setRecord",
      "outputs": [
        {
          "internalType": "bytes32",
          "name": "",
          "type": "bytes32"
        }
      ],
      "stateMutability": "nonpayable",
      "type": "function"
    },
    {
      "inputs": [
        {
          "internalType": "bytes32",
          "name": "did",
          "type": "bytes32"
        },
        {
          "internalType": "address",
          "name": "newOwner",
          "type": "address"
        }
      ],
      "name": "transferOwnership",
      "outputs": [],
      "stateMutability": "nonpayable",
      "type": "function"
    },
    {
      "inputs": [
        {
          "internalType": "bytes32",
          "name": "did",
          "type": "bytes32"
        },
        {
          "internalType": "string",
          "name": "newCid",
          "type": "string"
        }
      ],
      "name": "updateRecord",
      "outputs": [],
      "stateMutability": "nonpayable",
      "type": "function"
    }
  ],
  "bytecode": "0x608060405234801561001057600080fd5b506121d9806100206000396000f3fe608060405234801561001057600080fd5b506004361061009e5760003560e01c80634b04c09d116100665780634b04c09d14610193578063b377e399146101c6578063ef5d6bbb146101f7578063fb31ff3714610213578063fe2106b0146102435761009e565b80630aa1c191146100a35780630b95824b146100d35780633aea18cc146101035780633e0a0099146101335780633fb5667114610163575b600080fd5b6100bd60048036038101906100b89190611320565b61025f565b6040516100ca9190611382565b60405180910390f35b6100ed60048036038101906100e891906113c9565b61028f565b6040516100fa9190611411565b60405180910390f35b61011d600480360381019061011891906113c9565b6102b3565b60405161012a919061146d565b60405180910390f35b61014d60048036038101906101489190611320565b6103c6565b60405161015a9190611382565b60405180910390f35b61017d600480360381019061017891906114b4565b610663565b60405161018a9190611411565b60405180910390f35b6101ad60048036038101906101a891906113c9565b610775565b6040516101bd949392919061164a565b60405180910390f35b6101e060048036038101906101db91906113c9565b6109b2565b6040516101ee92919061169d565b60405180910390f35b610211600480360381019061020c91906114b4565b6109d6565b005b61022d600480360381019061022891906113c9565b610bcf565b60405161023a91906118ba565b60405180910390f35b61025d600480360381019061025891906118dc565b610d76565b005b6000816040516020016102729190611974565b604051602081830303815290604052805190602001209050919050565b60008060008084815260200190815260200160002060000180549050119050919050565b60008060008084815260200190815260200160002060030180548060200260200160405190810160405280929190818152602001828054801561034b57602002820191906000526020600020905b8160009054906101000a900473ffffffffffffffffffffffffffffffffffffffff1673ffffffffffffffffffffffffffffffffffffffff1681526020019060010190808311610301575b505050505090506000815111610396576040517f08c379a000000000000000000000000000000000000000000000000000000000815260040161038d906119d7565b60405180910390fd5b80600182516103a59190611a26565b815181106103b6576103b5611a5a565b5b6020026020010151915050919050565b60008082511161040b576040517f08c379a000000000000000000000000000000000000000000000000000000000815260040161040290611ad5565b60405180910390fd5b60006104168361025f565b905060008060008381526020019081526020016000206000018054905014610473576040517f08c379a000000000000000000000000000000000000000000000000000000000815260040161046a90611b41565b60405180910390fd5b6000600167ffffffffffffffff8111156104905761048f6111f5565b5b6040519080825280602002602001820160405280156104c357816020015b60608152602001906001900390816104ae5790505b50905083816000815181106104db576104da611a5a565b5b60200260200101819052506000600167ffffffffffffffff811115610503576105026111f5565b5b6040519080825280602002602001820160405280156105315781602001602082028036833780820191505090505b509050338160008151811061054957610548611a5a565b5b602002602001019073ffffffffffffffffffffffffffffffffffffffff16908173ffffffffffffffffffffffffffffffffffffffff168152505060405180608001604052808381526020014281526020014281526020018281525060008085815260200190815260200160002060008201518160000190805190602001906105d292919061103a565b5060208201518160010155604082015181600201556060820151816003019080519060200190610603929190611093565b509050503373ffffffffffffffffffffffffffffffffffffffff16837fb02e43c318c0d644b9cf6fc2cb3a4ea2dc64b1583b10034913e357c4bbcc98a78742604051610650929190611b61565b60405180910390a3829350505050919050565b6000806000808581526020019081526020016000206003018054806020026020016040519081016040528092919081815260200182805480156106fb57602002820191906000526020600020905b8160009054906101000a900473ffffffffffffffffffffffffffffffffffffffff1673ffffffffffffffffffffffffffffffffffffffff16815260200190600101908083116106b1575b50505050509050600081510361071557600091505061076f565b8273ffffffffffffffffffffffffffffffffffffffff16816001835161073b9190611a26565b8151811061074c5761074b611a5a565b5b602002602001015173ffffffffffffffffffffffffffffffffffffffff16149150505b92915050565b60606000806060600080600087815260200190815260200160002060405180608001604052908160008201805480602002602001604051908101604052809291908181526020016000905b8282101561086c5783829060005260206000200180546107df90611bc0565b80601f016020809104026020016040519081016040528092919081815260200182805461080b90611bc0565b80156108585780601f1061082d57610100808354040283529160200191610858565b820191906000526020600020905b81548152906001019060200180831161083b57829003601f168201915b5050505050815260200190600101906107c0565b50505050815260200160018201548152602001600282015481526020016003820180548060200260200160405190810160405280929190818152602001828054801561090d57602002820191906000526020600020905b8160009054906101000a900473ffffffffffffffffffffffffffffffffffffffff1673ffffffffffffffffffffffffffffffffffffffff16815260200190600101908083116108c3575b5050505050815250509050600081600001515111610960576040517f08c379a000000000000000000000000000000000000000000000000000000000815260040161095790611c3d565b60405180910390fd5b806000015160018260000151516109779190611a26565b8151811061098857610987611a5a565b5b60200260200101519450848160200151826040015183606001519450945094509450509193509193565b60006020528060005260406000206000915090508060010154908060020154905082565b60008060008481526020019081526020016000206000018054905011610a31576040517f08c379a0000000000000000000000000000000000000000000000000000000008152600401610a2890611c3d565b60405180910390fd5b610a3b8233610663565b610a7a576040517f08c379a0000000000000000000000000000000000000000000000000000000008152600401610a7190611ccf565b60405180910390fd5b600073ffffffffffffffffffffffffffffffffffffffff168173ffffffffffffffffffffffffffffffffffffffff1603610ae9576040517f08c379a0000000000000000000000000000000000000000000000000000000008152600401610ae090611d3b565b60405180910390fd5b6000339050600080848152602001908152602001600020600301829080600181540180825580915050600190039060005260206000200160009091909190916101000a81548173ffffffffffffffffffffffffffffffffffffffff021916908373ffffffffffffffffffffffffffffffffffffffff1602179055508173ffffffffffffffffffffffffffffffffffffffff168173ffffffffffffffffffffffffffffffffffffffff16847fa52922d09c6a1791e36eb59a9e49d10485a999fa47c3930dde6f6bf4329579d142604051610bc29190611d5b565b60405180910390a4505050565b610bd761111d565b60008083815260200190815260200160002060405180608001604052908160008201805480602002602001604051908101604052809291908181526020016000905b82821015610cc5578382906000526020600020018054610c3890611bc0565b80601f0160208091040260200160405190810160405280929190818152602001828054610c6490611bc0565b8015610cb15780601f10610c8657610100808354040283529160200191610cb1565b820191906000526020600020905b815481529060010190602001808311610c9457829003601f168201915b505050505081526020019060010190610c19565b505050508152602001600182015481526020016002820154815260200160038201805480602002602001604051908101604052809291908181526020018280548015610d6657602002820191906000526020600020905b8160009054906101000a900473ffffffffffffffffffffffffffffffffffffffff1673ffffffffffffffffffffffffffffffffffffffff1681526020019060010190808311610d1c575b5050505050815250509050919050565b610d808233610663565b610dbf576040517f08c379a0000000000000000000000000000000000000000000000000000000008152600401610db690611dc2565b60405180910390fd5b6000815111610e03576040517f08c379a0000000000000000000000000000000000000000000000000000000008152600401610dfa90611e2e565b60405180910390fd5b600080600084815260200190815260200160002060000180549050905060008111610e63576040517f08c379a0000000000000000000000000000000000000000000000000000000008152600401610e5a90611c3d565b60405180910390fd5b6000806000858152602001908152602001600020600001600183610e879190611a26565b81548110610e9857610e97611a5a565b5b906000526020600020018054610ead90611bc0565b80601f0160208091040260200160405190810160405280929190818152602001828054610ed990611bc0565b8015610f265780601f10610efb57610100808354040283529160200191610f26565b820191906000526020600020905b815481529060010190602001808311610f0957829003601f168201915b50505050509050610f368361025f565b610f3f8261025f565b03610f7f576040517f08c379a0000000000000000000000000000000000000000000000000000000008152600401610f7690611ec0565b60405180910390fd5b60008085815260200190815260200160002060000183908060018154018082558091505060019003906000526020600020016000909190919091509081610fc6919061208c565b5042600080868152602001908152602001600020600201819055503373ffffffffffffffffffffffffffffffffffffffff16847fc2c12348aa621de5602d001312fc05bbe814db52d5ed83ed8ec4bb5c39346f3683864260405161102c9392919061215e565b60405180910390a350505050565b828054828255906000526020600020908101928215611082579160200282015b82811115611081578251829081611071919061208c565b509160200191906001019061105a565b5b50905061108f9190611145565b5090565b82805482825590600052602060002090810192821561110c579160200282015b8281111561110b5782518260006101000a81548173ffffffffffffffffffffffffffffffffffffffff021916908373ffffffffffffffffffffffffffffffffffffffff160217905550916020019190600101906110b3565b5b5090506111199190611169565b5090565b6040518060800160405280606081526020016000815260200160008152602001606081525090565b5b80821115611165576000818161115c9190611186565b50600101611146565b5090565b5b8082111561118257600081600090555060010161116a565b5090565b50805461119290611bc0565b6000825580601f106111a457506111c3565b601f0160209004906000526020600020908101906111c29190611169565b5b50565b6000604051905090565b600080fd5b600080fd5b600080fd5b600080fd5b6000601f19601f8301169050919050565b7f4e487b7100000000000000000000000000000000000000000000000000000000600052604160045260246000fd5b61122d826111e4565b810181811067ffffffffffffffff8211171561124c5761124b6111f5565b5b80604052505050565b600061125f6111c6565b905061126b8282611224565b919050565b600067ffffffffffffffff82111561128b5761128a6111f5565b5b611294826111e4565b9050602081019050919050565b82818337600083830152505050565b60006112c36112be84611270565b611255565b9050828152602081018484840111156112df576112de6111df565b5b6112ea8482856112a1565b509392505050565b600082601f830112611307576113066111da565b5b81356113178482602086016112b0565b91505092915050565b600060208284031215611336576113356111d0565b5b600082013567ffffffffffffffff811115611354576113536111d5565b5b611360848285016112f2565b91505092915050565b6000819050919050565b61137c81611369565b82525050565b60006020820190506113976000830184611373565b92915050565b6113a681611369565b81146113b157600080fd5b50565b6000813590506113c38161139d565b92915050565b6000602082840312156113df576113de6111d0565b5b60006113ed848285016113b4565b91505092915050565b60008115159050919050565b61140b816113f6565b82525050565b60006020820190506114266000830184611402565b92915050565b600073ffffffffffffffffffffffffffffffffffffffff82169050919050565b60006114578261142c565b9050919050565b6114678161144c565b82525050565b6000602082019050611482600083018461145e565b92915050565b6114918161144c565b811461149c57600080fd5b50565b6000813590506114ae81611488565b92915050565b600080604083850312156114cb576114ca6111d0565b5b60006114d9858286016113b4565b92505060206114ea8582860161149f565b9150509250929050565b600081519050919050565b600082825260208201905092915050565b60005b8381101561152e578082015181840152602081019050611513565b60008484015250505050565b6000611545826114f4565b61154f81856114ff565b935061155f818560208601611510565b611568816111e4565b840191505092915050565b6000819050919050565b61158681611573565b82525050565b600081519050919050565b600082825260208201905092915050565b6000819050602082019050919050565b6115c18161144c565b82525050565b60006115d383836115b8565b60208301905092915050565b6000602082019050919050565b60006115f78261158c565b6116018185611597565b935061160c836115a8565b8060005b8381101561163d57815161162488826115c7565b975061162f836115df565b925050600181019050611610565b5085935050505092915050565b60006080820190508181036000830152611664818761153a565b9050611673602083018661157d565b611680604083018561157d565b818103606083015261169281846115ec565b905095945050505050565b60006040820190506116b2600083018561157d565b6116bf602083018461157d565b9392505050565b600081519050919050565b600082825260208201905092915050565b6000819050602082019050919050565b600082825260208201905092915050565b600061170e826114f4565b61171881856116f2565b9350611728818560208601611510565b611731816111e4565b840191505092915050565b60006117488383611703565b905092915050565b6000602082019050919050565b6000611768826116c6565b61177281856116d1565b935083602082028501611784856116e2565b8060005b858110156117c057848403895281516117a1858261173c565b94506117ac83611750565b925060208a01995050600181019050611788565b50829750879550505050505092915050565b6117db81611573565b82525050565b600082825260208201905092915050565b60006117fd8261158c565b61180781856117e1565b9350611812836115a8565b8060005b8381101561184357815161182a88826115c7565b9750611835836115df565b925050600181019050611816565b5085935050505092915050565b6000608083016000830151848203600086015261186d828261175d565b915050602083015161188260208601826117d2565b50604083015161189560408601826117d2565b50606083015184820360608601526118ad82826117f2565b9150508091505092915050565b600060208201905081810360008301526118d48184611850565b905092915050565b600080604083850312156118f3576118f26111d0565b5b6000611901858286016113b4565b925050602083013567ffffffffffffffff811115611922576119216111d5565b5b61192e858286016112f2565b9150509250929050565b600081905092915050565b600061194e826114f4565b6119588185611938565b9350611968818560208601611510565b80840191505092915050565b60006119808284611943565b915081905092915050565b7f5265636f726420686173206e6f206f776e657273000000000000000000000000600082015250565b60006119c16014836114ff565b91506119cc8261198b565b602082019050919050565b600060208201905081810360008301526119f0816119b4565b9050919050565b7f4e487b7100000000000000000000000000000000000000000000000000000000600052601160045260246000fd5b6000611a3182611573565b9150611a3c83611573565b9250828203905081811115611a5457611a536119f7565b5b92915050565b7f4e487b7100000000000000000000000000000000000000000000000000000000600052603260045260246000fd5b7f4349442063616e6e6f7420626520656d70747900000000000000000000000000600082015250565b6000611abf6013836114ff565b9150611aca82611a89565b602082019050919050565b60006020820190508181036000830152611aee81611ab2565b9050919050565b7f417274776f726b20616c72656164792072656769737465726564000000000000600082015250565b6000611b2b601a836114ff565b9150611b3682611af5565b602082019050919050565b60006020820190508181036000830152611b5a81611b1e565b9050919050565b60006040820190508181036000830152611b7b818561153a565b9050611b8a602083018461157d565b9392505050565b7f4e487b7100000000000000000000000000000000000000000000000000000000600052602260045260246000fd5b60006002820490506001821680611bd857607f821691505b602082108103611beb57611bea611b91565b5b50919050565b7f5265636f7264206e6f7420666f756e6400000000000000000000000000000000600082015250565b6000611c276010836114ff565b9150611c3282611bf1565b602082019050919050565b60006020820190508181036000830152611c5681611c1a565b9050919050565b7f4f6e6c792063757272656e74206f776e65722063616e207472616e736665722060008201527f6f776e6572736869700000000000000000000000000000000000000000000000602082015250565b6000611cb96029836114ff565b9150611cc482611c5d565b604082019050919050565b60006020820190508181036000830152611ce881611cac565b9050919050565b7f4e6577206f776e65722063616e6e6f74206265207a65726f2061646472657373600082015250565b6000611d256020836114ff565b9150611d3082611cef565b602082019050919050565b60006020820190508181036000830152611d5481611d18565b9050919050565b6000602082019050611d70600083018461157d565b92915050565b7f4f6e6c792063757272656e74206f776e65722063616e20757064617465000000600082015250565b6000611dac601d836114ff565b9150611db782611d76565b602082019050919050565b60006020820190508181036000830152611ddb81611d9f565b9050919050565b7f4e6577204349442063616e6e6f7420626520656d707479000000000000000000600082015250565b6000611e186017836114ff565b9150611e2382611de2565b602082019050919050565b60006020820190508181036000830152611e4781611e0b565b9050919050565b7f4e657720434944206d75737420626520646966666572656e742066726f6d206360008201527f757272656e742043494400000000000000000000000000000000000000000000602082015250565b6000611eaa602a836114ff565b9150611eb582611e4e565b604082019050919050565b60006020820190508181036000830152611ed981611e9d565b9050919050565b60008190508160005260206000209050919050565b60006020601f8301049050919050565b600082821b905092915050565b600060088302611f427fffffffffffffffffffffffffffffffffffffffffffffffffffffffffffffffff82611f05565b611f4c8683611f05565b95508019841693508086168417925050509392505050565b6000819050919050565b6000611f89611f84611f7f84611573565b611f64565b611573565b9050919050565b6000819050919050565b611fa383611f6e565b611fb7611faf82611f90565b848454611f12565b825550505050565b600090565b611fcc611fbf565b611fd7818484611f9a565b505050565b5b81811015611ffb57611ff0600082611fc4565b600181019050611fdd565b5050565b601f8211156120405761201181611ee0565b61201a84611ef5565b81016020851015612029578190505b61203d61203585611ef5565b830182611fdc565b50505b505050565b600082821c905092915050565b600061206360001984600802612045565b1980831691505092915050565b600061207c8383612052565b9150826002028217905092915050565b612095826114f4565b67ffffffffffffffff8111156120ae576120ad6111f5565b5b6120b88254611bc0565b6120c3828285611fff565b600060209050601f8311600181146120f657600084156120e4578287015190505b6120ee8582612070565b865550612156565b601f19841661210486611ee0565b60005b8281101561212c57848901518255600182019150602085019450602081019050612107565b868310156121495784890151612145601f891682612052565b8355505b6001600288020188555050505b505050505050565b60006060820190508181036000830152612178818661153a565b9050818103602083015261218c818561153a565b905061219b604083018461157d565b94935050505056fea264697066735822122051dae813ee1fa3c5f77520e29c135d16fd185db09edcfe6e4868ec3f1f9a59c364736f6c63430008130033",
  "linkReferences": {},
  "deployedLinkReferences": {}
}