{
  "_format": "hh-sol-artifact-1",
  "contractName": "ArtDIDRegistry",
  "sourceName": "contracts/ArtDIDRegistry.sol",
  "abi": [
    {
      "anonymous": false,
      "inputs": [
        {
          "indexed": true,
          "internalType": "string",
          "name": "did",
          "type": "string"
        },
        {
          "indexed": false,
          "internalType": "string",
          "name": "cid",
          "type": "string"
        },
        {
          "indexed": true,
          "internalType": "address",
          "name": "identity",
          "type": "address"
        },
        {
          "indexed": false,
          "internalType": "uint256",
          "name": "timestamp",
          "type": "uint256"
        }
      ],
      "name": "RecordSet",
      "type": "event"
    },
    {
      "inputs": [
        {
          "internalType": "string",
          "name": "",
          "type": "string"
        }
      ],
      "name": "didRecords",
      "outputs": [
        {
          "internalType": "string",
          "name": "",
          "type": "string"
        }
      ],
      "stateMutability": "view",
      "type": "function"
    },
    {
      "inputs": [
        {
          "internalType": "string",
          "name": "cid",
          "type": "string"
        }
      ],
      "name": "generateDID",
      "outputs": [
        {
          "internalType": "string",
          "name": "",
          "type": "string"
        }
      ],
      "stateMutability": "pure",
      "type": "function"
    },
    {
      "inputs": [
        {
          "internalType": "string",
          "name": "did",
          "type": "string"
        }
      ],
      "name": "getRecord",
      "outputs": [
        {
          "internalType": "string",
          "name": "",
          "type": "string"
        }
      ],
      "stateMutability": "view",
      "type": "function"
    },
    {
      "inputs": [
        {
          "internalType": "string",
          "name": "did",
          "type": "string"
        }
      ],
      "name": "hasRecord",
      "outputs": [
        {
          "internalType": "bool",
          "name": "",
          "type": "bool"
        }
      ],
      "stateMutability": "view",
      "type": "function"
    },
    {
      "inputs": [
        {
          "internalType": "string",
          "name": "cid",
          "type": "string"
        }
      ],
      "name": "setRecord",
      "outputs": [
        {
          "internalType": "string",
          "name": "",
          "type": "string"
        }
      ],
      "stateMutability": "nonpayable",
      "type": "function"
    }
  ],
  "bytecode": "0x608060405234801561001057600080fd5b50610dee806100206000396000f3fe608060405234801561001057600080fd5b50600436106100575760003560e01c80630aa1c1911461005c57806311dd88451461008c5780632bac2ad7146100bc5780633e0a0099146100ec578063fbcfc0151461011c575b600080fd5b61007660048036038101906100719190610796565b61014c565b604051610083919061085e565b60405180910390f35b6100a660048036038101906100a19190610796565b61018a565b6040516100b3919061085e565b60405180910390f35b6100d660048036038101906100d19190610796565b61023a565b6040516100e3919061089b565b60405180910390f35b61010660048036038101906101019190610796565b610270565b604051610113919061085e565b60405180910390f35b61013660048036038101906101319190610796565b610386565b604051610143919061085e565b60405180910390f35b606060008260405160200161016191906108f2565b6040516020818303038152906040528051906020012090506101828161043c565b915050919050565b606060008260405161019c91906108f2565b908152602001604051809103902080546101b590610938565b80601f01602080910402602001604051908101604052809291908181526020018280546101e190610938565b801561022e5780601f106102035761010080835404028352916020019161022e565b820191906000526020600020905b81548152906001019060200180831161021157829003601f168201915b50505050509050919050565b60008060008360405161024d91906108f2565b9081526020016040518091039020805461026690610938565b9050119050919050565b6060600061027d8361014c565b90506000808260405161029091906108f2565b908152602001604051809103902080546102a990610938565b9050146102eb576040517f08c379a00000000000000000000000000000000000000000000000000000000081526004016102e2906109b5565b60405180910390fd5b826000826040516102fc91906108f2565b908152602001604051809103902090816103169190610b8b565b503373ffffffffffffffffffffffffffffffffffffffff168160405161033c91906108f2565b60405180910390207fa4a8126d04a6431ced8c6262986f5a72f059aba0d2efb52d72139332d51a2a818542604051610375929190610c6c565b60405180910390a380915050919050565b60008180516020810182018051848252602083016020850120818352809550505050505060009150905080546103bb90610938565b80601f01602080910402602001604051908101604052809291908181526020018280546103e790610938565b80156104345780601f1061040957610100808354040283529160200191610434565b820191906000526020600020905b81548152906001019060200180831161041757829003601f168201915b505050505081565b606060006040518060400160405280601081526020017f303132333435363738396162636465660000000000000000000000000000000081525090506000604067ffffffffffffffff8111156104955761049461066b565b5b6040519080825280601f01601f1916602001820160405280156104c75781602001600182028036833780820191505090505b50905060005b6020811015610631578260048683602081106104ec576104eb610c9c565b5b1a60f81b7effffffffffffffffffffffffffffffffffffffffffffffffffffffffffffff1916901c60f81c60ff168151811061052b5761052a610c9c565b5b602001015160f81c60f81b826002836105449190610cfa565b8151811061055557610554610c9c565b5b60200101907effffffffffffffffffffffffffffffffffffffffffffffffffffffffffffff1916908160001a90535082600f60f81b86836020811061059d5761059c610c9c565b5b1a60f81b1660f81c60ff16815181106105b9576105b8610c9c565b5b602001015160f81c60f81b8260016002846105d49190610cfa565b6105de9190610d3c565b815181106105ef576105ee610c9c565b5b60200101907effffffffffffffffffffffffffffffffffffffffffffffffffffffffffffff1916908160001a905350808061062990610d70565b9150506104cd565b508092505050919050565b6000604051905090565b600080fd5b600080fd5b600080fd5b600080fd5b6000601f19601f8301169050919050565b7f4e487b7100000000000000000000000000000000000000000000000000000000600052604160045260246000fd5b6106a38261065a565b810181811067ffffffffffffffff821117156106c2576106c161066b565b5b80604052505050565b60006106d561063c565b90506106e1828261069a565b919050565b600067ffffffffffffffff8211156107015761070061066b565b5b61070a8261065a565b9050602081019050919050565b82818337600083830152505050565b6000610739610734846106e6565b6106cb565b90508281526020810184848401111561075557610754610655565b5b610760848285610717565b509392505050565b600082601f83011261077d5761077c610650565b5b813561078d848260208601610726565b91505092915050565b6000602082840312156107ac576107ab610646565b5b600082013567ffffffffffffffff8111156107ca576107c961064b565b5b6107d684828501610768565b91505092915050565b600081519050919050565b600082825260208201905092915050565b60005b838110156108195780820151818401526020810190506107fe565b60008484015250505050565b6000610830826107df565b61083a81856107ea565b935061084a8185602086016107fb565b6108538161065a565b840191505092915050565b600060208201905081810360008301526108788184610825565b905092915050565b60008115159050919050565b61089581610880565b82525050565b60006020820190506108b0600083018461088c565b92915050565b600081905092915050565b60006108cc826107df565b6108d681856108b6565b93506108e68185602086016107fb565b80840191505092915050565b60006108fe82846108c1565b915081905092915050565b7f4e487b7100000000000000000000000000000000000000000000000000000000600052602260045260246000fd5b6000600282049050600182168061095057607f821691505b60208210810361096357610962610909565b5b50919050565b7f417274776f726b20616c72656164792072656769737465726564000000000000600082015250565b600061099f601a836107ea565b91506109aa82610969565b602082019050919050565b600060208201905081810360008301526109ce81610992565b9050919050565b60008190508160005260206000209050919050565b60006020601f8301049050919050565b600082821b905092915050565b600060088302610a377fffffffffffffffffffffffffffffffffffffffffffffffffffffffffffffffff826109fa565b610a4186836109fa565b95508019841693508086168417925050509392505050565b6000819050919050565b6000819050919050565b6000610a88610a83610a7e84610a59565b610a63565b610a59565b9050919050565b6000819050919050565b610aa283610a6d565b610ab6610aae82610a8f565b848454610a07565b825550505050565b600090565b610acb610abe565b610ad6818484610a99565b505050565b5b81811015610afa57610aef600082610ac3565b600181019050610adc565b5050565b601f821115610b3f57610b10816109d5565b610b19846109ea565b81016020851015610b28578190505b610b3c610b34856109ea565b830182610adb565b50505b505050565b600082821c905092915050565b6000610b6260001984600802610b44565b1980831691505092915050565b6000610b7b8383610b51565b9150826002028217905092915050565b610b94826107df565b67ffffffffffffffff811115610bad57610bac61066b565b5b610bb78254610938565b610bc2828285610afe565b600060209050601f831160018114610bf55760008415610be3578287015190505b610bed8582610b6f565b865550610c55565b601f198416610c03866109d5565b60005b82811015610c2b57848901518255600182019150602085019450602081019050610c06565b86831015610c485784890151610c44601f891682610b51565b8355505b6001600288020188555050505b505050505050565b610c6681610a59565b82525050565b60006040820190508181036000830152610c868185610825565b9050610c956020830184610c5d565b9392505050565b7f4e487b7100000000000000000000000000000000000000000000000000000000600052603260045260246000fd5b7f4e487b7100000000000000000000000000000000000000000000000000000000600052601160045260246000fd5b6000610d0582610a59565b9150610d1083610a59565b9250828202610d1e81610a59565b91508282048414831517610d3557610d34610ccb565b5b5092915050565b6000610d4782610a59565b9150610d5283610a59565b9250828201905080821115610d6a57610d69610ccb565b5b92915050565b6000610d7b82610a59565b91507fffffffffffffffffffffffffffffffffffffffffffffffffffffffffffffffff8203610dad57610dac610ccb565b5b60018201905091905056fea2646970667358221220901839aeac62328d5e55118d227c85c566596c1496a5776fcd58438f15e7810f64736f6c63430008130033",
  "linkReferences": {},
  "deployedLinkReferences": {}
}